:020000040800F2
:100000005807002089010008D507000809060008E4
:10001000D1070008B10400087B10000800000000B0
:10002000000000000000000000000000A10C00081B
:10003000B504000800000000390B0008B50D0008E9
:10004000A3010008A3010008A3010008A301000800
:10005000A3010008A3010008A3010008A3010008F0
:10006000A3010008A3010008A3010008A3010008E0
:10007000A3010008A3010008A3010008A3010008D0
:10008000A3010008A3010008A3010008A3010008C0
:10009000A3010008A3010008A3010008A3010008B0
:1000A000A3010008A3010008A3010008A3010008A0
:1000B000190E0008A3010008A3010008A30100080D
:1000C000A3010008A3010008A3010008A301000880
:1000D000A3010008950F0008A3010008A301000870
:1000E000A3010008A3010008A301000800F002F822
:1000F00000F03AF80AA090E8000C82448344AAF188
:100100000107DA4501D100F02FF8AFF2090EBAE885
:100110000F0013F0010F18BFFB1A43F0010318473B
:100120007C1200009C120000103A24BF78C878C1ED
:10013000FAD8520724BF30C830C144BF04680C60ED
:10014000704700000023002400250026103A28BF35
:1001500078C1FBD8520728BF30C148BF0B60704739
:100160001FB51FBD10B510BD00F033F81146FFF7E5
:10017000F7FF00F0E5FF00F051F803B4FFF7F2FFDE
:1001800003BC00F07CFF0000094880470948004795
:10019000FEE7FEE7FEE7FEE7FEE7FEE7FEE7FEE737
:1001A000FEE7FEE704480549054A064B7047000094
:1001B000B90D0008ED000008580100205807002084
:1001C000580300205803002070477047704770475D
:1001D0007047754600F02CF8AE4605006946534658
:1001E00020F00700854618B020B5FFF7DBFFBDE81B
:1001F00020404FF000064FF000074FF000084FF08E
:10020000000B21F00701AC46ACE8C009ACE8C0091E
:10021000ACE8C009ACE8C0098D46704710B504468B
:10022000AFF300802046BDE81040FFF7A6BF0000F6
:1002300000487047F400002021B1826842F00102BA
:10024000826003E0826822F0010282607047000051
:1002500010B504461248844208D10121401500F02F
:1002600099FC0021601500F095FC17E00D488442D0
:1002700008D10121001500F08DFC0021201500F0AF
:1002800089FC0BE00848844208D10121C80300F032
:1002900081FC00214FF4004000F07CFC10BD000008
:1002A0000024014000280140003C0140014600209C
:1002B0008A6802F004020AB1012000E000207047C1
:1002C0000146C86C80B270470246002013680B409C
:1002D0000BB1012000E000207047014600208A6831
:1002E00002F008020AB1012000E00020704700007F
:1002F00030B502460020002350680F4C20400D7995
:100300000C6844EA05242043506090680B4C204060
:10031000D1E902542C434D7944EA450420439060CE
:10032000D06A20F470000C7C641EE4B2234340EADF
:100330000350D06230BD0000FFFEF0FFFDF7F1FF7B
:10034000F0B504460D4600200021092D11DDE068BE
:10035000A5F10A0606EB4607072606FA07F18843C9
:10036000A5F10A0606EB460603FA06F10843E0602B
:100370000CE0206905EB4507072606FA07F18843DC
:1003800005EB450603FA06F108432061072A0FDA58
:10039000606B561E06EB86071F2606FA07F1884398
:1003A000561E06EB860605FA06F10843606322E056
:1003B0000D2A0FDA206BD61F06EB86071F2606FADA
:1003C00007F18843D61F06EB860605FA06F10843B7
:1003D000206310E0E06AA2F10D0606EB86071F26F7
:1003E00006FA07F18843A2F10D0606EB860605FA28
:1003F00006F10843E062F0BD816841F008018160C8
:10040000704721B1826842F4A002826003E08268F2
:1004100022F4A00282607047816841F0040181608B
:100420007047000000B587B001214FF4017000F063
:10043000A1FB4FF4004000F081FB0F20ADF8040059
:1004400000208DF8070001A9174800F034F817487C
:10045000FFF7FEFE002002908DF80C008DF80D00D5
:100460004FF4602004900020059001208DF81800C2
:1004700002A90E48FFF73CFF01210C48FFF7DCFE04
:100480000A48FFF7B9FF00BF0848FFF726FF00281A
:10049000FAD10648FFF7C0FF00BF0448FFF706FF88
:1004A0000028FAD107B000BD000801400024014037
:1004B00000BFFEE770472DE9F04102460025002607
:1004C000002000230024002791F803C00CF00F0542
:1004D00091F803C00CF0100CBCF1000F03D091F8A0
:1004E00002C04CEA050591F800C0BCF1000F31D004
:1004F000146800202BE04FF0010C0CFA00F3B1F867
:1005000000C00CEA03069E4220D183004FF00F0C7E
:100510000CFA03F7BC4305FA03FC4CEA040491F817
:1005200003C0BCF1280F06D14FF0010C0CFA00FCFF
:10053000C2F814C00AE091F803C0BCF1480F05D11D
:100540004FF0010C0CFA00FCC2F810C0401C082847
:10055000D1D31460B1F800C0BCF1FF0F34DD546892
:1005600000202EE000F1080C4FF0010808FA0CF30F
:10057000B1F800C00CEA03069E4221D183004FF07F
:100580000F0C0CFA03F7BC4305FA03FC4CEA040415
:1005900091F803C0BCF1280F05D100F1080C08FA4E
:1005A0000CF8C2F8148091F803C0BCF1480F07D1D1
:1005B00000F1080C4FF0010808FA0CF8C2F810809E
:1005C000401C0828CED35460BDE8F08141617047DB
:1005D0000161704710B5044601231A4621460948B7
:1005E000FFF7AEFE01210748FFF70BFF00BF022116
:1005F0000448FFF769FE0028F9D00248FFF760FEC3
:1006000010BD00000024014000BFFEE700B585B02A
:100610000121192000F0AEFA0121084600F09AFAF3
:100620004FF44040ADF8100048208DF8130003202F
:100630008DF8120004A91948FFF73DFF04A91848D6
:10064000FFF739FF40F2CF70ADF808004010ADF869
:1006500004000020ADF80600ADF80A0001A94FF033
:10066000804000F045FC01221146900700F036FC66
:100670000121880700F015FC1C208DF800000320E4
:100680008DF8010000208DF8020001208DF8030094
:10069000684600F00FFA05B000BD0000000C0140F4
:1006A000001001403448007A012856D10220324916
:1006B00008720846007888B10846007970B90020B1
:1006C00005E02D490A5C091D0A54411CC8B20428E2
:1006D000F7DB00202849087201207047264840783F
:1006E00088B12548407970B9002005E022490A5CAC
:1006F000091D0A54411CC8B20428F7DB00201E491A
:1007000008720220E9E71C48807888B11A4880798D
:1007100070B9002005E018490A5C091D0A54411C03
:10072000C8B20428F7DB0020134908720320D4E77D
:100730001148C07888B11048C07970B9002005E030
:100740000D490A5C091D0A54411CC8B20428F7DB94
:100750000020094908720420BFE7002005E006498F
:100760000A5C091D0A54411CC8B20428F7DB0020AA
:100770000149087200BFB0E7E800002008B5012178
:10078000152000F0F7F94FF48070ADF8000010204C
:100790008DF8030003208DF8020069460A48FFF730
:1007A0008AFE4FF40050ADF8000069460748FFF795
:1007B00082FE4FF480710448FFF70AFF4FF40051A6
:1007C0000248FFF705FF08BD000801400010014086
:1007D00000BFFEE7704700001CB511A103C9CDE9B9
:1007E0000001102000F010FA05226946302000F0C8
:1007F0002BF905226946102000F08AF8002406E053
:100800001DF80400A52800D003E0601CC4B2052C2C
:10081000F6DB00BF052C01D001201CBD0020FCE749
:10082000A5A5A5A5A500000000B587B0012141F24E
:100830000C0000F09FF91020ADF818008DF81B0097
:1008400003208DF81A0006A92C48FFF734FE022079
:10085000ADF8180006A92A48FFF72DFE0120ADF8D3
:10086000180028208DF81B0006A92548FFF723FE55
:1008700003212348FFF7AAFE10212048FFF7A6FE18
:10088000E020ADF8180018208DF81B0006A91B48C1
:10089000FFF711FE4FF460411948FFF799FE002061
:1008A000ADF804004FF48270ADF806000020ADF8FA
:1008B0000800ADF80A00ADF80C004FF40070ADF878
:1008C0000E002020ADF810000020ADF81200072027
:1008D000ADF8140001A90B4800F0C4F90121094842
:1008E00000F0A6F9FF2000F065F900200649086035
:1008F00001200649C1F8900107B000BD0008014081
:10090000000C01400030014084812142000021425E
:100910002DE9F04107460D46164600200A490860B9
:10092000384600F047F98046002405E0FF2000F03B
:1009300041F92855601CC4B2B442F7DB01200249DA
:1009400008604046BDE8F0819001214270B5044640
:10095000002007490860204600F02CF9FF2000F035
:1009600029F9054601200349C1F89001284670BDC8
:10097000900121420000214210B500201449086076
:1009800005221449302000F05FF8052212492A2080
:1009900000F05AF80121212000F074F801212220F2
:1009A00000F070F81A21242000F06CF84621252070
:1009B00000F068F80F21262000F064F80E212020B6
:1009C00000F060F801200549C1F8840110BD000065
:1009D0008481214290130008951300080080214271
:1009E00070B50546102000F00FF90020144908608A
:1009F00001222946A02000F027F801201149C1F862
:100A0000840100BF0E48843800680028FAD107200E
:100A1000FFF79CFF04462146272000F033F804F03E
:100A2000100028B1FF21E12000F02CF8102070BD4B
:100A300004F0200008B12020F9E7FF20F7E70000CC
:100A400084812142008021422DE9F04107460C4675
:100A5000154600200A490860384600F0ABF8804689
:100A6000002605E014F8010B00F0A4F8701CC6B2D3
:100A7000AE42F7DB0120024908604046BDE8F08144
:100A80009001214270B505460C46002007490860D8
:100A9000284600F08FF80646204600F08BF801202B
:100AA0000349C1F89001304670BD00009001214219
:100AB0000000214270B5002100230F22C47804B346
:100AC000154C246804F4E064C4F5E064210AC1F123
:100AD0000403CA40447804FA03F1847814402143A3
:100AE00009010E4C0678A155047804F01F05012475
:100AF000AC4005786D11AD0005F1E025C5F8004169
:100B000009E0047804F01F050124AC40044D067888
:100B1000761145F8264070BD0CED00E000E400E0E1
:100B200080E100E002490143024A11607047000081
:100B30000000FA050CED00E07047000001460020BF
:100B4000034A506820F4404008435060704700005A
:100B50000010024029B1064AD2690243044BDA610F
:100B600004E0034AD2698243014BDA617047000016
:100B70000010024029B1064A92690243044B9A616F
:100B800004E0034A92698243014B9A617047000076
:100B90000010024029B1064AD2680243044BDA60D1
:100BA00004E0034AD2688243014BDA6070470000D8
:100BB0000010024070B50546002405E0601CC4B278
:100BC000C82C01DD002070BD02210E4800F03CF869
:100BD0000028F3D029460B4800F042F8002405E035
:100BE000601CC4B2C82C01DD0020ECE701210548DF
:100BF00000F02AF80028F3D0024800F02EF8C0B226
:100C0000E1E700000030014010B5044607480088C5
:100C10004FF6C77108400549088008460088204300
:100C200008800121014800F003F810BD00300140A8
:100C300021B1028842F04002028004E002884FF6AF
:100C4000BF731A40028070470246002013890B4090
:100C50000BB1012000E000207047014688897047F1
:100C60008181704710B50022028802F441520B883E
:100C70004C8823438C882343CC8823430C8923430B
:100C80004C8923438C892343CC8923431A43028014
:100C9000838B4FF2FF74234083830B8A038210BD42
:100CA000704710B500F002F810BD00000CB5002030
:100CB000019000903348006840F48030314908606A
:100CC00000BF3048006800F4003000900198401CDC
:100CD0000190009818B90198B0F5A06FF1D129489A
:100CE000006800F4003010B10120009001E0002005
:100CF00000900098012843D12348006840F010007C
:100D0000214908600846006820F003000860084692
:100D1000006840F0020008601A48406819494860BD
:100D20000846406848600846406840F48060486073
:100D30000846406820F47C1048600846406840F44B
:100D4000E81048600846006840F08070086000BF06
:100D50000C48006800F000700028F9D0094840688D
:100D600020F00300074948600846406840F0020050
:100D7000486000BF0348406800F00C000828F9D123
:100D80000CBD00000010024000200240042808D1E1
:100D90004FF0E021096941F004014FF0E0221161B8
:100DA00007E04FF0E021096921F004014FF0E02253
:100DB000116170477047000010B51348006840F09B
:100DC00001001149086008464068104908400E4972
:100DD0004860084600680E4908400B49086008460C
:100DE000006820F4802008600846406820F4FE0077
:100DF00048604FF41F008860FFF753FF4FF000601A
:100E00000449086010BD0000001002400000FFF817
:100E1000FFFFF6FE08ED00E010B50121880700F0A5
:100E20004CF801282FD11A48007A60BB1948006895
:100E300018B901201649087002E000201449087012
:100E40001548006818B901201149487002E00020D7
:100E50000F4948700F48001F006818B901200C495D
:100E6000887002E000200A4988700B48001D006865
:100E700018B901200649C87002E000200449C87072
:100E80000120034908720121880700F007F810BD0E
:100E9000E80000203C01224238812142CA430282FC
:100EA000704721B1028842F00102028004E002880A
:100EB0004FF6FE731A400280704730B5024600209C
:100EC00000230024158A05EA0103958905EA010437
:100ED00013B10CB1012000E0002030BD1AB18389AC
:100EE0000B43838102E083898B4383817047000039
:100EF000002202881D4B98420ED01D4B98420BD009
:100F0000B0F1804F08D01B4B984205D01A4B984245
:100F100002D01A4B984204D14FF68F731A404B8877
:100F20001A43174B984207D0164B984204D04FF6FD
:100F3000FF431A40CB881A4302808B8883850B8835
:100F400003850A4B98420BD0094B984208D00E4BB0
:100F5000984205D00D4B984202D00D4B984201D1DA
:100F60000B7A03860123838270470000002C014026
:100F7000003401400004004000080040000C004024
:100F800000100040001400400040014000440140B7
:100F90000048014010B540F225511D4800F03EF8D0
:100FA00010B31B4800F064F8C4B21A48008800F47B
:100FB0000040C8B91748008800F4804060B10A2C8E
:100FC00003D000201349088020E01248008840F434
:100FD00000401049088019E00D2C06D10D4800880A
:100FE00040F480400B49088010E00A480088C0F3B4
:100FF0000D0009490C5407480088401C0549088029
:1010000008460088C72801DD0020088010BD0000C8
:10101000003801401C0000202000002070B502466E
:10102000002400230025002040F66A16B14200D1BA
:1010300000BFC1F3421501F01F03012606FA03F3B6
:10104000012D02D19689334006E0022D02D1168A85
:10105000334001E0968A33400C12012606FA04F46C
:101060001688344013B10CB1012000E0002070BD9F
:1010700001468888C0F30800704700BFFEE700BF44
:101080007047014640F2555250000346914201DC40
:1010900064207047994201DB7520FAE7914204DD34
:1010A000B1F5805F01DA6D20F3E700BFF1E70000E2
:1010B00010B56FF00400FFF769FE0A4800680A499E
:1010C000B0FBF1F0094908700846007800EB4001D8
:1010D000C1EBC0104FF6FF7101EAC000044908805F
:1010E00010BD00000000002000127A001400002053
:1010F000160000200146114A12884A434FF0E023AF
:101100005A6100229A611A46126942F001021A617C
:1011100000BF4FF0E022106900F001021AB100F4A4
:101120008032002AF5D04FF0E022126922F001024D
:101130004FF0E0231A6100229A61704716000020E8
:1011400008B5FFF7B5FF4FF4A060FFF7EBFCFFF722
:1011500015FBFFF767F9FFF759FAFFF765FB11E099
:101160000020894908608949C1F8A001C820FFF71B
:10117000C1FF0120844908608449C1F8A001C8204A
:10118000FFF7B8FFFFF728FB0028E9D1FFF7F4FBD2
:10119000F9E001207C4908607C49C1F8A001FFF713
:1011A00081FA0446012C18D1312000906846FFF7DF
:1011B00017FC2028ECD10020734908607349C1F85E
:1011C000A0014FF49670FFF795FF01206E4908606B
:1011D0006E49C1F8A0010024D5E0022C21D13220B3
:1011E00000906846FFF7FCFB2028D1D1012066491A
:1011F000086000206549C1F8A0014FF49670FFF720
:1012000079FF00206049086001206049C1F8A00111
:101210004FF49670FFF76EFF01205B4908600024D1
:10122000B1E0032C21D10024332000906846FFF761
:10123000D7FB2028ACD10120534908600020534936
:10124000C1F8A0014FF49670FFF754FF00204E49FB
:10125000086001204D49C1F8A0014FF49670FFF7D6
:1012600049FF0120484908608DE0042C90D10024FA
:10127000342000906846FFF7B3FB202888D1012076
:101280004149086000204149C1F8A0014FF496701F
:10129000FFF730FF00203C49086001203B49C1F8BE
:1012A000A0014FF49670FFF725FF01203649086032
:1012B00000BF66E0FFF7F6F90446012C18D1312093
:1012C00000906846FFF78CFB20285AD100202E4959
:1012D00008602E49C1F8A0014FF49670FFF70AFF8D
:1012E0000120294908602949C1F8A001002448E0EB
:1012F000042C29D131200090002023490860234983
:10130000C1F8A0014FF4FA70FFF7F4FE01201E4966
:1013100008601E49C1F8A00100246846FFF760FB81
:10132000202810D10020184908601849C1F8A001F0
:101330004FF47A70FFF7DEFE01201349086013496D
:10134000C1F8A00100BF1DE0DCB90220FFF742F99F
:101350000546FFF796FE00906846FFF741FB202800
:101360000FD10020084908600849C1F8A001C82031
:10137000FFF7C0FE0120044908600449C1F8A0013C
:10138000002497E700BF04E7B40122420000214295
:10139000344310100134431010010000BC13000846
:1013A000000000202000000028010008DC130008D5
:1013B00020000020380700004401000800A24A0471
:1013C00000000000000000000102030406070809F5
:0C13D00000000000000000000000000011
:04000005080000ED02
:00000001FF
